S011000048414C5F54494D45522E737265635E
S11300000C942A000C9447000C9447000C9447006D
S11300100C9447000C9447000C9447000C94470040
S11300200C9447000C9447000C94AA000C945C00B8
S11300300C9447000C9447000C9447000C94470020
S11300400C9447000C9447000C9447000C94470010
S11300500C94470011241FBECFE5D8E0DEBFCDBF0E
S113006010E0A0E6B0E0EAE1F3E002C005900D92F2
S1130070AA36B107D9F720E0AAE6B0E001C01D9284
S1130080AC36B207E1F70E9449000C948B010C9442
S11300900000789480E690E00E94C1008FEF8ABB54
S11300A081BB84BB8BB380958BBB83E294EF0197B8
S11300B0F1F700C00000F6CF1F920F920FB60F9217
S11300C011242F933F934F935F936F937F938F9359
S11300D09F93AF93BF93EF93FF9340916A00509126
S11300E06B004F5F5F4F50936B0040936A009A011F
S11300F0ADECBCEC0E947C0196958795969587950E
S11301009C01220F331F220F331F820F931F4817A6
S1130110590731F06AE670E080E690E00E946401DD
S113012083E294EF0197F1F700C0000085B3809556
S113013085BBFF91EF91BF91AF919F918F917F917B
S11301406F915F914F913F912F910F900FBE0F9040
S11301501F9018951F920F920FB60F9211248F9330
S11301609F9383E294EF0197F1F700C0000082B3FC
S1130170809582BB9F918F910F900FBE0F901F901F
S11301801895FC01892B09F493C0A081B0E09C91DF
S11301904181842F8270880F880F892B242F21702E
S11301A030E00024369527950794369527950794D3
S11301B0322F202D282B2C93A081B0E02C919381F9
S11301C030E1939FC0011124822B8C93A081B0E075
S11301D09C918281892B8C9380818335A1F58481C4
S11301E082BF86818CBF818181111BC08085813251
S11301F029F489B7816089BF80E00895823229F4A7
S113020089B7826089BF80E00895833229F489B771
S1130210836089BF80E0089589B78C7F89BF80E0BF
S113022008958085813209F445C0823229F489B762
S1130230826089BF80E008958332F1F189B78C7FB1
S113024089BF80E008958534C9F5848184BD8681A1
S113025083BD818181111BC08085813229F489B7D6
S1130260806489BF80E00895823229F489B7806868
S113027089BF80E00895833229F489B7806C89BFEF
S113028080E0089589B78F7389BF80E008958085E1
S11302908132B1F0823229F489B7806489BF80E069
S11302A00895833279F089B78F7389BF80E0089508
S11302B081E0089581E0089581E0089580E0089543
S11302C081E0089581E00895009791F0FB01208179
S11302D0422F50E0FC01558344838081833519F417
S11302E022BF80E00895853429F424BD80E0089578
S11302F081E0089580E00895A29FB001B39FC001FA
S1130300A39F700D811D1124911DB29F700D811D3D
S10D03101124911D0895F894FFCF05
S10D031A5300010000004B00200016
S9030000FC
