S01400004543555F4C43442D503231362E73726563EB
S11300000C942A000C943F000C943F000C943F0085
S11300100C943F000C943F000C943F000C943F0060
S11300200C943F000C943F000C943F000C943F0050
S11300300C943F000C943F000C943F000C943F0040
S11300400C943F000C943F000C943F000C943F0030
S11300500C943F0011241FBECFE5D8E0DEBFCDBF16
S113006010E0A0E6B0E0E4E5F6E002C005900D92F1
S1130070AE36B107D9F70E94AF020C9428030C9452
S113008000009C01205331092A30310578F468308E
S113009078F4FC01418121E030E002C0220F331FDB
S11300A06A95E2F7242B218380E0089581E0089586
S11300B081E008959C01205331092A30310580F4F0
S11300C0683080F4FC01428121E030E002C0220F5C
S11300D0331F6A95E2F720952423228380E0089554
S11300E081E0089581E008959C01205331092A306C
S11300F0310578F4683078F4FC01428121E030E085
S113010002C0220F331F6A95E2F7242B228380E07A
S1130110089581E0089581E008950F931F93CF938C
S1130120DF93009709F4B9C00FEF060F003C08F005
S1130130B6C0FC012681213009F0B3C0162FEC01B2
S11301408281638190E00E945A008981843051F455
S1130150E881F0E08281982F9F70812F807F892B26
S1130160828333C0833051F4E881F0E08281912F9F
S1130170907F96958778892B828327C0823059F4A3
S1130180E881F0E08281912F907F96959695837C0B
S1130190892B82831AC0813061F4E881F0E0828186
S11301A0912F907F969596959695817E892B828343
S11301B00CC081110AC0E881F0E08281982F907F01
S11301C0812F82958F70892B82838A816D8190E043
S11301D00E94740000008A816D8190E00E945A00A0
S11301E0F6E0FA95F1F700C08981843061F4E88182
S11301F0F0E06281862F8F7090E1199FB001112485
S1130200682B628330C0833061F4E881F0E082813E
S1130210612F6F70660F660F660F8778682B628395
S113022022C0823059F4E881F0E08281612F6F703E
S1130230660F660F837C862B828315C0813051F450
S1130240E881F0E08281612F6F70660F817E862BDA
S1130250828309C0E881F0E06281862F807F612F6C
S11302606F70682B62838A816D8190E00E947400B4
S113027000008A816D8190E00E945A00023040F4AF
S1130280E3EFF1E03197F1F700C0000080E00AC02D
S1130290F8E2FA95F1F780E005C081E003C081E05F
S11302A001C082E0DF91CF911F910F910895AF9229
S11302B0BF92CF92EF920F93CF93009709F45EC051
S11302C030ED360F3A3008F05BC030ED320F3A3083
S11302D008F058C0083008F057C037E03E1508F45D
S11302E055C03C1508F454C0453008F053C0C42F21
S11302F05C01FC0160832283C5820383E482418321
S113030081E086836C2D822F90E00E944100F501EC
S11303108281602F90E00E944100F50182816E2D60
S113032090E00E94410087E893E10197F1F700C053
S11303300000F5018281602F90E00E945A00F501CF
S113034082816E2D90E00E945A0004E00C0FF501AA
S113035080816C2F90E00E944100CF5F0C13F7CF97
S113036063E3C5010E948D0062E3C5010E948D0014
S113037068E2C5010E948D0080E00DC081E00BC0E1
S113038081E009C081E007C081E005C081E003C0CD
S113039081E001C081E0CF910F91EF90CF90BF90A9
S11303A0AF9008951F93CF93DF93009709F4A9C0EA
S11303B0FC012681213009F0A6C0162FEC018281B0
S11303C0638190E00E9474008981843049F4E8815B
S11303D0F0E082818F70912F907F892B828333C0CC
S11303E0833051F4E881F0E08281912F907F9695DB
S11303F08778892B828327C0823059F4E881F0E022
S11304008281912F907F96959695837C892B828308
S11304101AC0813061F4E881F0E08281912F907FED
S1130420969596959695817E892B82830CC0811131
S11304300AC0E881F0E08281982F907F812F829515
S11304408F70892B82838A816D8190E00E94740071
S113045000008A816D8190E00E945A00F6E0FA95CE
S1130460F1F700C08981843061F4E881F0E06281B1
S1130470862F8F7090E1199FB0011124682B62833D
S113048030C0833061F4E881F0E08281612F6F70C5
S1130490660F660F660F8778682B628322C08230EE
S11304A059F4E881F0E08281612F6F70660F660F66
S11304B0837C682B628315C0813051F4E881F0E0BD
S11304C08281612F6F70660F817E862B828309C0C3
S11304D0E881F0E06281862F807F612F6F70682B46
S11304E062838A816D8190E00E94740000008A8199
S11304F06D8190E00E945A00E8E2EA95F1F780E00D
S113050003C081E001C082E0DF91CF911F91089583
S1130510EF92FF920F931F93CF93FB010097A1F0EB
S11305203097A1F06081662399F08F017C01C0E0CF
S1130530CF5FC7010E94D201F801EC0FF11D608169
S11305406111F6CF80E005C081E003C081E001C005
S113055080E0CF911F910F91FF90EF900895CF937A
S1130560DF93CDB7DEB764970FB6F894DEBF0FBE46
S1130570CDBF6894CC24C2F80F2EF3E0EF2EF02DFB
S113058002E023E344E060E3CE0101960E945701B8
S11305908DE0E0E6F0E0DE01189601900D928A9578
S11305A0E1F76DE4CE0101960E94D2012FE986E8BD
S11305B091E0215080409040E1F700C0000063E5E5
S11305C0CE0101960E94D2012FE986E891E02150E4
S11305D080409040E1F700C0000061E4CE01019644
S11305E00E94D2012FE986E891E02150804090409A
S11305F0E1F700C0000061E0CE0101960E948D0089
S11306002FE986E891E0215080409040E1F700C056
S11306100000BE01685F7F4FCE0101960E948802F0
S11306202FE986E891E0215080409040E1F700C036
S1130630000061E0CE0101960E948D002FE986E85A
S113064091E0215080409040E1F700C00000A9CF24
S1070650F894FFCF48
S11106544D61686D6F75642053616164000030
S9030000FC
