S00F000048414C5F50574D2E73726563ED
S11300000C942A000C9434000C9434000C943400A6
S11300100C9434000C9434000C9434000C9434008C
S11300200C9434000C9434000C9434000C9434007C
S11300300C9434000C9434000C9434000C9434006C
S11300400C9434000C9434000C9434000C9434005C
S11300500C94340011241FBECFE5D8E0DEBFCDBF21
S11300600E94FA010C941D040C9400004F925F92BC
S11300706F927F92AF92BF92CF92EF92FF920F93C3
S11300801F93CF93DF93FC01633529F06F3419F08C
S1130090653409F0E9C0E114F1040105110509F41E
S11300A0E5C0309709F4E4C08EEF840F823008F085
S11300B0E1C027013801142FF62EEF01233009F493
S11300C0FDC0213009F4D8C081E01BC19C2D80E023
S11300D064E670E00E94F5038B010150110921C010
S11300E09C2D80E064E670E00E94F5030FEF10E0C1
S11300F0061B170B16C02FEFC29EC001112464E625
S113010070E00E94F5038B010CC05FEFC59EC00137
S1130110112464E670E00E94F5030FEF10E0061B63
S1130120170B20E030E040E85FE3C301B2010E9416
S11301305A02882324F481E0888780E063C020E0A9
S113014030E040E85FE3C301B2010E948303181664
S113015074F420E030E040E051E4C301B2010E94B5
S11301605A02882324F482E0888780E04BC020E090
S113017030E040E051E4C301B2010E948303181649
S113018074F420E030E040E852E4C301B2010E947C
S11301905A02882324F483E0888780E033C020E077
S11301A030E040E852E4C301B2010E948303181610
S11301B074F420E030E040E853E4C301B2010E944B
S11301C05A02882324F484E0888780E01BC020E05E
S11301D030E040E853E4C301B2010E9483031816DF
S11301E074F420E030E040E854E4C301B2010E941A
S11301F05A02882334F485E0888780E003C082E0D3
S113020001C082E0EF2DF0E020819885922B90834D
S1130210E881F0E020813A81932F9270990F990F31
S1130220922B30FBAA24A0F8B12C0024B694A794F6
S11302300794B694A7940794BA2CA02CA92AA08258
S1130240E881F0E04081998150E1959F900111246B
S1130250242B208393E5F91202C00CBF52C025E47D
S1130260F2124FC003BD4DC081E04BC081E049C0D4
S113027081E047C081E045C06883C78243825482DD
S113028065827682498381E082838187C301B201DA
S11302900E94D10220E030E04FEF53E40E94880333
S11302A09B01AC0160E074E284E799E40E945F0280
S11302B02B013C01123009F028CF1DCF6883C7827F
S11302C04382548265827682498383E0828381E01B
S11302D08187C301B2010E94D10220E030E040E8EE
S11302E053E40E9488039B01AC0160E074E284E75C
S11302F099E40E945F022B013C01123009F0F0CE18
S1130300E5CEDF91CF911F910F91FF90EF90CF90A9
S1130310BF90AF907F906F905F904F900895CF9271
S1130320EF92FF920F931F930115110521053105DB
S1130330B9F00097B9F05EEF560F5230A8F4542F7D
S11303405D7F513099F4FC015185513089F4CE2CF4
S113035078018901242F462F60810E94360009C04C
S113036081E007C081E005C081E003C081E001C0F5
S113037083E01F910F91FF90EF90CF900895009725
S1130380C9F0DC01EC91F0E010828C91833529F402
S11303901CBE12BEC39880E008958F3421F4949853
S11303A0959880E00895853439F413BC14BC97986B
S11303B080E0089581E0089580E008950097B1F009
S11303C0DC0119962C911997213091F4EC91F0E00D
S11303D010821C9217961C92FC01138214821582BF
S11303E0168211821282118680E0089581E00895B8
S11303F083E00895CF93DF93CDB7DEB72A970FB686
S1130400F894DEBF0FBECDBF8FEF87BB88BB81BB27
S11304100F2EF4E1CF2EF02D12E1E12E1AE7F12E8A
S113042000E010E023E042E063E5CE0101960E9483
S11304303600FF24FA940F2EF4E1EF2EF02D00E4A1
S113044012E42FE030E043E062E0CE0101960E9426
S11304508F01F2BA2FE38DE093E021508040904069
S1130460E1F700C00000CE0101960E94BF0112BA5C
S11304702FE38DE093E0215080409040E1F700C0ED
S1130480000000E412E42FE030E043E062E0CE013B
S113049001960E948F01F2BA2FE38DE093E0215080
S11304A080409040E1F700C00000CE0101960E9418
S11304B0DE01C1CF0E940E0308F481E008950E947A
S11304C073020C9449030E94420358F00E943B03B8
S11304D040F029F45F3F29F00C94320351110C943D
S11304E07D030C9438030E945A0368F39923B1F3F3
S11304F0552391F3951B550BBB27AA276217730746
S1130500840738F09F5F5F4F220F331F441FAA1FD9
S1130510A9F335D00E2E3AF0E0E832D09150504095
S1130520E695001CCAF72BD0FE2F29D0660F771F43
S1130530881FBB1F261737074807AB07B0E809F029
S1130540BB0B802DBF01FF2793585F4F3AF09E3FAE
S1130550510578F00C9432030C947D035F3FE4F36F
S1130560983ED4F3869577956795B795F7959F5FF1
S1130570C9F7880F911D9695879597F90895E1E03D
S1130580660F771F881FBB1F621773078407BA079C
S113059020F0621B730B840BBA0BEE1F88F7E095F7
S11305A00895E89409C097FB3EF490958095709562
S11305B061957F4F8F4F9F4F9923A9F0F92F96E9AB
S11305C0BB279395F695879577956795B795F11120
S11305D0F8CFFAF4BB0F11F460FF1BC06F5F7F4FBD
S11305E08F4F9F4F16C0882311F096E911C07723CF
S11305F021F09EE8872F762F05C0662371F096E8D8
S1130600862F70E060E02AF09A95660F771F881FA6
S1130610DAF7880F9695879597F90895990F00084A
S1130620550FAA0BE0E8FEEF16161706E807F907C0
S1130630C0F012161306E407F50798F0621B730B5B
S1130640840B950B39F40A2661F0232B242B252BDC
S113065021F408950A2609F4A140A6958FEF811D7F
S1130660811D089597F99F6780E870E060E0089520
S11306709FEF80EC089500240A94161617061806B6
S11306800906089500240A94121613061406050692
S11306900895092E0394000C11F4882352F0BB0F23
S11306A040F4BF2B11F460FF04C06F5F7F4F8F4F86
S11306B09F4F089557FD9058440F551F59F05F3FC1
S11306C071F04795880F97FB991F61F09F3F79F070
S11306D087950895121613061406551FF2CF4695F2
S11306E0F1DF08C0161617061806991FF1CF869574
S11306F07105610508940895E894BB276627772758
S1130700CB0197F908950E940E0308F48FEF089522
S11307100E949B030C9449030E943B0338F00E94FF
S1130720420320F0952311F00C9432030C94380307
S113073011240C947D030E945A0370F3959FC1F316
S1130740950F50E0551F629FF001729FBB27F00D7B
S1130750B11D639FAA27F00DB11DAA1F649F6627D0
S1130760B00DA11D661F829F2227B00DA11D621F1F
S1130770739FB00DA11D621F839FA00D611D221FD9
S1130780749F3327A00D611D231F849F600D211DBD
S1130790822F762F6A2F11249F5750409AF0F1F040
S11307A088234AF0EE0FFF1FBB1F661F771F881FA9
S11307B091505040A9F79E3F510580F00C943203AC
S11307C00C947D035F3FE4F3983ED4F386957795CC
S11307D06795B795F795E7959F5FC1F7FE2B880F4F
S11307E0911D9695879597F9089597FB072E16F412
S11307F0009407D077FD09D00E94090407FC05D0B6
S11308003EF4909581959F4F0895709561957F4F23
S11308100895AA1BBB1B51E107C0AA1FBB1FA61743
S1130820B70710F0A61BB70B881F991F5A95A9F795
S111083080959095BC01CD010895F894FFCFFA
S9030000FC
