S00F000048414C5F50574D2E73726563ED
S11300000C942A000C9434000C9434000C943400A6
S11300100C9434000C9434000C9434000C9434008C
S11300200C9434000C9434000C9434000C9434007C
S11300300C9434000C9434000C9434000C9434006C
S11300400C9434000C9434000C9434000C9434005C
S11300500C94340011241FBECFE5D8E0DEBFCDBF21
S11300600E948C010C9470030C9400004F925F92D8
S11300706F927F92AF92BF92CF92EF92FF920F93C3
S11300801F93CF93DF93FC01633529F06F3419F08C
S1130090653409F0E9C0E114F1040105110509F41E
S11300A0E5C0309709F4E4C08EEF840F823008F085
S11300B0E1C027013801142FF62EEF01233009F493
S11300C0FCC0213009F4D8C081E018C19C2D80E027
S11300D064E670E00E9448038B010150110921C0BD
S11300E09C2D80E064E670E00E9448030FEF10E06E
S11300F0061B170B16C02FEFC29EC001112464E625
S113010070E00E9448038B010CC05FEFC59EC001E4
S1130110112464E670E00E9448030FEF10E0061B10
S1130120170B20E030E040E85FE3C301B2010E9416
S1130130AD01882324F481E0888780E063C020E057
S113014030E040E85FE3C301B2010E94D602181612
S113015074F420E030E040E051E4C301B2010E94B5
S1130160AD01882324F482E0888780E04BC020E03E
S113017030E040E051E4C301B2010E94D6021816F7
S113018074F420E030E040E852E4C301B2010E947C
S1130190AD01882324F483E0888780E033C020E025
S11301A030E040E852E4C301B2010E94D6021816BE
S11301B074F420E030E040E853E4C301B2010E944B
S11301C0AD01882324F484E0888780E01BC020E00C
S11301D030E040E853E4C301B2010E94D60218168D
S11301E074F420E030E040E854E4C301B2010E941A
S11301F0AD01882334F485E0888780E003C082E081
S113020001C082E0EF2DF0E020819885922B90834D
S1130210E881F0E020813A81932F9270990F990F31
S1130220922B30FBAA24A0F8B12C0024B694A794F6
S11302300794B694A7940794BA2CA02CA92AA08258
S1130240E881F0E04081998150E1959F900111246B
S1130250242B208393E5F91202C00CBF4FC025E480
S1130260F2124CC003BD4AC081E048C081E046C0E0
S113027081E044C081E042C06883C78243825482E3
S113028065827682498381E08283C301B2010E9440
S1130290240220E030E04FEF53E40E94DB029B0194
S11302A0AC0160E074E284E799E40E94B2012B019E
S11302B03C01123009F029CF1ECF6883C7824382E4
S11302C0548265827682498383E08283C301B201CA
S11302D00E94240220E030E040E853E40E94DB0264
S11302E09B01AC0160E074E284E799E40E94B201EE
S11302F02B013C01123009F0F3CEE8CEDF91CF910F
S11303001F910F91FF90EF90CF90BF90AF907F908F
S11303106F905F904F900895CF93DF93CDB7DEB782
S113032029970FB6F894DEBF0FBECDBF8FEF87BB02
S113033088BB81BB82BB0F2EF5E0CF2EF02D12E1DE
S1130340E12E1AE7F12E00E010E023E042E063E53D
S1130350CE0101960E943600FFCF0E94610208F48C
S113036081E008950E94C6010C949C020E949502AB
S113037058F00E948E0240F029F45F3F29F00C945B
S1130380850251110C94D0020C948B020E94AD0290
S113039068F39923B1F3552391F3951B550BBB27B0
S11303A0AA2762177307840738F09F5F5F4F220FF5
S11303B0331F441FAA1FA9F335D00E2E3AF0E0E8EC
S11303C032D091505040E695001CCAF72BD0FE2F36
S11303D029D0660F771F881FBB1F261737074807CA
S11303E0AB07B0E809F0BB0B802DBF01FF27935882
S11303F05F4F3AF09E3F510578F00C9485020C94BF
S1130400D0025F3FE4F3983ED4F3869577956795E1
S1130410B795F7959F5FC9F7880F911D96958795B6
S113042097F90895E1E0660F771F881FBB1F6217D5
S113043073078407BA0720F0621B730B840BBA0B93
S1130440EE1F88F7E0950895E89409C097FB3EF401
S113045090958095709561957F4F8F4F9F4F99230D
S1130460A9F0F92F96E9BB279395F695879577958B
S11304706795B795F111F8CFFAF4BB0F11F460FF4B
S11304801BC06F5F7F4F8F4F9F4F16C0882311F0A3
S113049096E911C0772321F09EE8872F762F05C0B7
S11304A0662371F096E8862F70E060E02AF09A9552
S11304B0660F771F881FDAF7880F9695879597F947
S11304C00895990F0008550FAA0BE0E8FEEF1616E1
S11304D01706E807F907C0F012161306E407F50734
S11304E098F0621B730B840B950B39F40A2661F0A8
S11304F0232B242B252B21F408950A2609F4A1404B
S1130500A6958FEF811D811D089597F99F6780E857
S113051070E060E008959FEF80EC089500240A9451
S11305201616170618060906089500240A941216CA
S11305301306140605060895092E0394000C11F4FD
S1130540882352F0BB0F40F4BF2B11F460FF04C0AA
S11305506F5F7F4F8F4F9F4F089557FD9058440F03
S1130560551F59F05F3F71F04795880F97FB991F0E
S113057061F09F3F79F087950895121613061406CB
S1130580551FF2CF4695F1DF08C016161706180658
S1130590991FF1CF86957105610508940895E89433
S11305A0BB2766277727CB0197F908950E9461023C
S11305B008F48FEF08950E94EE020C949C020E94AE
S11305C08E0238F00E94950220F0952311F00C94CD
S11305D085020C948B0211240C94D0020E94AD026B
S11305E070F3959FC1F3950F50E0551F629FF00182
S11305F0729FBB27F00DB11D639FAA27F00DB11D9B
S1130600AA1F649F6627B00DA11D661F829F222723
S1130610B00DA11D621F739FB00DA11D621F839FAA
S1130620A00D611D221F749F3327A00D611D231F80
S1130630849F600D211D822F762F6A2F11249F57CE
S113064050409AF0F1F088234AF0EE0FFF1FBB1FD1
S1130650661F771F881F91505040A9F79E3F510590
S113066080F00C9485020C94D0025F3FE4F3983E32
S1130670D4F3869577956795B795F795E7959F5F3A
S1130680C1F7FE2B880F911D9695879597F90895CC
S113069097FB072E16F4009407D077FD09D00E942B
S11306A05C0307FC05D03EF4909581959F4F089517
S11306B0709561957F4F0895AA1BBB1B51E107C03C
S11306C0AA1FBB1FA617B70710F0A61BB70B881FDE
S11306D0991F5A95A9F780959095BC01CD0108956D
S10706E0F894FFCFB8
S9030000FC
