S014000050726F6A65637458626173652E7372656346
S11300000C942A000C9447000C9447000C9447006D
S11300100C94EE030C94C5030C9447000C94470015
S11300200C9447000C9447000C949C030C947303A9
S11300300C9484020C9417040C9440040C94470010
S11300400C9449000C9447000C9447000C9447000E
S11300500C94470011241FBECFE5D8E0DEBFCDBF0E
S113006010E0A0E6B0E0E0E0F9E002C005900D92F7
S1130070A239B107D9F720E0A2E9B0E001C01D928E
S1130080AC3CB207E1F70E9469040C947E040C9422
S113009000001F920F920FB60F9211242F933F93DB
S11300A04F935F936F937F938F939F93AF93BF937C
S11300B0EF93FF93E0919200F0919300309709F051
S11300C00995FF91EF91BF91AF919F918F917F918E
S11300D06F915F914F913F912F910F900FBE0F90B1
S11300E01F90189590ED980F9A3018F5411110C093
S11300F08F5FE82FF0E0208181E090E002C0880F5C
S1130100991F6A95E2F780958223808380E00895A1
S1130110413089F48F5FE82FF0E0208181E090E0A6
S113012002C0880F991F6A95E2F7822B808380E0D2
S1130130089581E0089580E008950F931F93CF936D
S1130140DF9390ED980F9A3078F58E5F442371F128
S1130150E0E0F0E001E010E0C82FD0E0D8010E2E7E
S113016002C0AA0FBB1F0A94E2F7A62359F03881F4
S1130170C801022E02C0880F991F0A94E2F7832B4C
S113018088830CC09881D801022E02C0AA0FBB1F1D
S11301900A94E2F78A2F80958923888331962F5F0A
S11301A0E417E0F280E003C081E001C080E0DF9169
S11301B0CF911F910F91089590ED980F9A3060F5AB
S11301C0E82FF0E0208130E002C0359527954A956C
S11301D0E2F7613091F0623091F0633091F0643075
S11301E091F0653091F0663091F0673091F081E0E4
S11301F0683009F080E081950DC081E00BC083E098
S113020009C087E007C08FE005C08FE103C08FE31A
S113021001C08FE78223089581E00895E7EAF0E0C2
S113022087EB90E0108211821282138234968E172B
S11302309F07C1F708950F931F93CF93DF93C82FA0
S1130240D0E0062F10E0FE01EE0FFF1FEE0FFF1FA0
S1130250E955FF4FE00FF11F8081813099F018F0CC
S1130260823001F14DC00E940E01CC0FDD1FCC0F76
S1130270DD1FC955DF4FC00FD11F81E08883109265
S113028060003EC00E940E01CC0FDD1FCC0FDD1FAD
S1130290C955DF4FC00FD11F82E0888381E080936E
S11302A060002EC00E940E01FE01EE0FFF1FEE0F34
S11302B0FF1FE955FF4FE00FF11F82E0808380911B
S11302C060008230D1F0CC0FDD1FCC0FDD1FCF5783
S11302D0DF4FC00FD11F8881E091B800F0E0EF59E3
S11302E0FF4F808382BB8091B8008F5F803219F00A
S11302F08093B80002C01092B80082E0809360003E
S1130300DF91CF911F910F9108950F931F93CF9376
S1130310DF93C1E0D0E004E910E0F801238144E078
S11303206C2F82810E949D00F801418164E08081EC
S11303300E94DC00C130D10519F5823091F018F427
S1130340813031F07FC0843089F08830A1F07AC0E8
S113035092B381E0892782BB61E081E00E941B01A6
S113036078C062E081E00E941B0173C063E081E019
S11303700E941B016EC064E081E00E941B0169C001
S1130380C230D105F9F4823071F018F4813031F0C3
S113039059C0843069F0883081F054C061E082E053
S11303A00E941B0156C062E082E00E941B0151C002
S11303B063E082E00E941B014CC064E082E00E9482
S11303C01B0147C0C430D105F9F4823071F018F430
S11303D0813031F037C0843069F0883081F032C028
S11303E061E083E00E941B0134C062E083E00E946C
S11303F01B012FC063E083E00E941B012AC064E05C
S113040083E00E941B0125C0823071F018F4813012
S113041031F018C0843069F0883081F013C061E095
S113042084E00E941B010EC062E084E00E941B0174
S113043009C063E084E00E941B0104C064E084E01E
S11304400E941B01CC0FDD1FC930D1050CF465CF10
S113045003C0CC0FDD1F61CFDF91CF911F910F91AE
S113046008951F93CF93DF93EC0110E06B81610F2C
S113047041E08A810E9472001F5F1430B9F710E0D6
S11304806981610F40E088810E9472001F5F14300F
S1130490B9F785E0FE01A4E9B0E001900D928A95D8
S11304A0E1F7E9E9F0E083E5808382E0828325E8EF
S11304B031E03587248724E630E03087278384833E
S11304C08183838316821582CF010E94AD02DF915E
S11304D0CF911F9108950097A9F0FC018481813088
S11304E081F4E091B7008E0F803221F08093B70041
S11304F080E00895F0E0EF59FF4F80811092B7003B
S11305000895089580E008951F920F920FB60F92F8
S113051011242F933F934F935F936F937F938F9304
S11305209F93AF93BF93EF93FF93E091B900F09142
S1130530BA00309709F00995FF91EF91BF91AF91FF
S11305409F918F917F916F915F914F913F912F91E7
S11305500F900FBE0F901F901895FC01892B09F482
S1130560BEC08081833509F05AC0858182BF8781EE
S11305708CBF8381823019F483B7886083BF818103
S1130580813051F489B7816089BF828593859093C6
S1130590C2008093C10020C0823051F489B78260C8
S11305A089BF848595859093C0008093BF0014C053
S11305B0833091F489B7816089BF89B7826089BF2C
S11305C0828593859093C2008093C100848595852C
S11305D09093C0008093BF008181882309F07894B0
S11305E08481813031F4A081B0E08C9180618C935E
S11305F06DC0823031F4A081B0E08C9180628C9324
S113060065C0833009F062C0A081B0E08C91806144
S11306108C93A081B0E08C9180628C9357C0853418
S113062009F05FC0858184BD878183BD8381823069
S113063019F485B5886085BD8181813051F489B70D
S1130640806489BF828593859093BE008093BD00AA
S113065020C0823051F489B7806889BF848595852C
S11306609093BC008093BB0014C0833091F489B78D
S1130670806489BF89B7806889BF82859385909398
S1130680BE008093BD00848595859093BC008093C3
S1130690BB008481813031F4A081B0E08C91806111
S11306A08C9314C0823031F4A081B0E08C918062CC
S11306B08C930CC0833051F4A081B0E08C918061A4
S11306C08C93A081B0E08C9180628C93A081B0E087
S11306D08C91887F9281892B8C9380E0089581E0AE
S11306E0089581E008951F920F920FB60F9211247E
S11306F02F933F934F935F936F937F938F939F9326
S1130700AF93BF93EF93FF93E091C100F091C200C8
S1130710309709F00995FF91EF91BF91AF919F91A7
S11307208F917F916F915F914F913F912F910F9096
S11307300FBE0F901F9018951F920F920FB60F9235
S113074011242F933F934F935F936F937F938F93D2
S11307509F93AF93BF93EF93FF93E091BF00F0910A
S1130760C000309709F00995FF91EF91BF91AF91C7
S11307709F918F917F916F915F914F913F912F91B5
S11307800F900FBE0F901F9018951F920F920FB6E7
S11307900F9211242F933F934F935F936F937F9303
S11307A08F939F93AF93BF93EF93FF93E091BD001B
S11307B0F091BE00309709F00995FF91EF91BF9138
S11307C0AF919F918F917F916F915F914F913F91E5
S11307D02F910F900FBE0F901F9018951F920F929C
S11307E00FB60F9211242F933F934F935F936F9300
S11307F07F938F939F93AF93BF93EF93FF93E09176
S1130800BB00F091BC00309709F00995FF91EF917E
S1130810BF91AF919F918F917F916F915F914F9114
S11308203F912F910F900FBE0F901F9018951F921C
S11308300F920FB60F9211242F933F934F935F9310
S11308406F937F938F939F93AF93BF93EF93FF9394
S1130850E091C300F091C400309709F00995FF912D
S1130860EF91BF91AF919F918F917F916F915F9124
S11308704F913F912F910F900FBE0F901F9018959D
S11308801F920F920FB60F9211242F933F934F9301
S11308905F936F937F938F939F93AF93BF93EF93E4
S11308A0FF93E091C500F091C600309709F00995D7
S11308B0FF91EF91BF91AF919F918F917F916F9134
S11308C05F914F913F912F910F900FBE0F901F900A
S11308D018958FEF81BB8FE084BBE7ECF0E083E3F6
S11308E0808394E0918382831382CF010E9431023A
S11308F087EC90E00E946B0282BBFACFF894FFCFA2
S113090003070000000000000000000000000000D9
S113091000000000000000000000000000000000D3
S1130920003132332A3435362F3738392D3D3025CE
S10509302B0096
S9030000FC
