S01B000054696D65724D616E6167656D656E74556E69742E737265636B
S11300000C942A000C943C000C943C000C943C008E
S11300100C943C000C943C000C943C000C943C006C
S11300200C943C000C943C000C9488000C943C0010
S11300300C943C000C943C000C943C000C943C004C
S11300400C943C000C943C000C943C000C943C003C
S11300500C943C0011241FBECFE5D8E0DEBFCDBF19
S113006020E0A0E6B0E001C01D92A837B207E1F796
S11300700E944E000C9489010C9400008BB380956F
S11300808BBB089588B3809588BB089585B380950C
S113009085BB089582B3809582BB0895CF93DF9387
S11300A0CDB7DEB7A0970FB6F894DEBF0FBECDBFB5
S11300B08FEF8ABB87BB84BB81BB8AE090E00E9440
S11300C0B6002EE330E042E350E060E0CE0101965A
S11300D00E94D30022E430E044E650E060E0CE0128
S11300E009960E94D30026E430E044EF51E060E03A
S11300F0CE0141960E94D3002AE430E048EE53E05A
S113010060E0CE0149960E94D3000E943401FDCFE5
S11301101F920F920FB60F9211242F933F938F9338
S11301209F93AF93BF93EF93FF93A4E6B0E028E7C8
S113013030E0ED91FD91309729F082819381019710
S113014093838283A217B307A1F712BE8EE48CBFF8
S11301507894FF91EF91BF91AF919F918F913F91CF
S11301602F910F900FBE0F901F901895E4E6F0E0CA
S113017028E730E011921192E217F307D9F7909330
S113018061008093600081E08093620083E083BF1C
S113019012BE8EE48CBF82E089BF88B7816088BFBD
S11301A0789480E00895CF93DF93FC01C62FF894F0
S11301B090916200913091F5D0916300DA3050F55E
S11301C0309721F1623010F541155105F9F02115F0
S11301D03105E1F03183208360916000709161000A
S11301E0CA010E9475017583648373836283C68325
S11301F0D783AD2FB0E0AA0FBB1FAC59BF4FED930F
S1130200FC93DF5FD093630080E00BC083E082BB8C
S113021082E007C087E082BB83E003C087E082BB43
S113022081E07894DF91CF910895FC01F894892BB3
S1130230C1F011821082158214821382128282E02C
S11302408683A781B0E0AA0FBB1FAC59BF4F1D9294
S11302501C9217828091630081508093630080E038
S113026001C082E078940895EF92FF920F931F9358
S1130270CF93DF93F89480916200882369F1C4E6F8
S1130280D0E00F2EF8E7EF2EF0E0FF2EF02DE881FE
S1130290F9813097D9F08281938118161906B4F048
S11302A00190F081E02D0995E881F9812281338163
S11302B084819581820F931F93838283E881F981DE
S11302C08681813019F4CF010E9415012296CE1542
S11302D0DF05E9F680E001C081E07894DF91CF91F9
S11302E01F910F91FF90EF900895AA1BBB1B51E142
S11302F007C0AA1FBB1FA617B70710F0A61BB70B92
S1130300881F991F5A95A9F780959095BC01CD0136
S10903100895F894FFCFEC
S9030000FC
