S01C00006D3332635F756C747261736F6E69632D746573742E7372656343
S11300000C942A000C9474000C943C000C943C0056
S11300100C943C000C943C000C943C000C943C006C
S11300200C943C000C943C000C943C000C943C005C
S11300300C943C000C943C000C943C000C943C004C
S11300400C943C000C943C000C943C000C943C003C
S11300500C943C0011241FBECFE5D8E0DEBFCDBF19
S113006020E0A0E6B0E001C01D92A436B207E1F79B
S11300700E943E000C94CC000C9400008FEF84BBD3
S11300808ABB87BB85E588BB8A9883ED90E301979B
S1130090F1F700C000008BB780648BBF85B7816027
S11300A085BF78942AE330E09FE946E881E09150E7
S11300B040408040E1F700C0000088B3809588BBD1
S11300C0A89A95E09A95F1F7A89883ED90E30197A3
S11300D0F1F700C000008091620090916300B901C3
S11300E00E94A4006BBBE0CF1F920F920FB60F9239
S11300F011248F939F9380916000909161000197E8
S113010069F41EBC8CB59DB5909363008093620026
S11301101DBC1CBC109261001092600080916000B4
S113012090916100892B49F48EB581608EBD81E088
S113013090E090936100809360009F918F910F9065
S11301400FBE0F901F90189597FB072E16F400947E
S113015007D077FD09D00E94B80007FC05D03EF413
S1130160909581959F4F0895709561957F4F08955F
S1130170AA1BBB1B51E107C0AA1FBB1FA617B707C9
S113018010F0A61BB70B881F991F5A95A9F78095E5
S10F01909095BC01CD010895F894FFCFB8
S9030000FC
