S010000048414C5F4750494F2E73726563B1
S11300000C942A000C9434000C9434000C943400A6
S11300100C9434000C9434000C9434000C9434008C
S11300200C9434000C9434000C9434000C9434007C
S11300300C9434000C9434000C9434000C9434006C
S11300400C9434000C9434000C9434000C9434005C
S11300500C94340011241FBECFE5D8E0DEBFCDBF21
S11300600E9400010C9446010C9400009C01205352
S113007031092A30310528F42FEFFC01218380E077
S1130080089581E008959C01205331092A303105F7
S113009030F4FC0111822FEF228380E0089581E087
S11300A008959C01205331092A30310578F46830D1
S11300B078F4FC01418121E030E002C0220F331FBB
S11300C06A95E2F7242B218380E0089581E0089566
S11300D081E008959C01205331092A303105A0F4B0
S11300E06830A0F4FC01418121E030E002C0220F1D
S11300F0331F6A95E2F7322F3095342331833281EE
S1130100232B228380E0089581E0089581E00895FF
S11301109C01205331092A30310548F461157105D9
S113012041F0FC018081FB01808380E0089581E03F
S1130130089581E008959C01205331092A30310546
S113014048F46115710541F0FB012081FC01228313
S113015080E0089581E0089581E008959C01205392
S113016031092A30310598F44115510591F0683070
S113017090F421E030E002C0220F331F6A95E2F7C9
S1130180FC0180812823FA01208380E0089581E026
S1130190089581E0089581E008959C012053310978
S11301A02A30310580F4683080F4FC01428121E07A
S11301B030E002C0220F331F6A95E2F72095242312
S11301C0228380E0089581E0089581E008959C01F0
S11301D0205331092A30310578F4683078F4FC0171
S11301E0428121E030E002C0220F331F6A95E2F71A
S11301F0242B228380E0089581E0089581E008950E
S1130200CF93DF9300D0CDB7DEB789E390E00E94AF
S1130210360086E390E00E94430061E083E390E0CF
S11302200E94510062E083E390E00E94510064E088
S113023083E390E00E946A0065E083E390E00E941B
S11302406A00BE016F5F7F4F86E390E00E948800E2
S1130250BE016F5F7F4F89E390E00E949B00AE0177
S11302604E5F5F4F64E083E390E00E94AE008A81BA
S1130270811106C061E083E390E00E94CD00C5CF08
S113028061E083E390E00E94E700BFCFF894FFCFE2
S9030000FC
