S01A000048414C5F5350495F526544657369676E65642E73726563B1
S11300000C942A000C943C000C943C000C943C008E
S11300100C943C000C943C000C943C000C943C006C
S11300200C943C000C943C000C943C000C943C005C
S11300300C94A1000C943C000C943C000C943C00E7
S11300400C943C000C943C000C943C000C943C003C
S11300500C943C0011241FBECFE5D8E0DEBFCDBF19
S113006020E0A0E6B0E001C01D92A236B207E1F79D
S11300700E94CA000C9401010C940000CF92DF92FC
S1130080EF920F93FC01F894608381E086834183AF
S11300902283E4820383C582213019F5BC9ABF9A76
S11300A0BD9ABE98E62FF0E090818E2D880F880FC0
S11300B08061242F2370822B892B8083208130E25E
S11300C0C39EC0011124806490E8099F600111243B
S11300D08C29822B8083818146954695482B4183C8
S11300E00FC0BC98BF98BD98BE9AE62FF0E09081EF
S11300F080E8089F90011124822F8064892B8083DB
S1130100013009F4789480E00F91EF90DF90CF9064
S1130110089525E02A95F1F70000DC01EC91F0E068
S1130120DB012C912283FC01A081B0E0FD0131961A
S113013080818823ECF712968C91DA018C9380E00D
S113014008951F920F920FB60F9211242F933F938D
S11301504F935F936F937F938F939F93AF93BF93CB
S1130160EF93FF93E0916000F0916100309709F004
S11301700995FF91EF91BF91AF919F918F917F91DD
S11301806F915F914F913F912F910F900FBE0F9000
S11301901F901895CF93DF93CDB7DEB729970FB68D
S11301A0F894DEBF0FBECDBF8FEF81BB84E188879B
S11301B0C12CE12C00E020E041E06DE2CE0101968B
S11301C00E943E008FE19EE40197F1F700C0000019
S11301D09FEF29E688E1915020408040E1F700C07C
S11301E00000AE01475F5F4FBE01685F7F4FCE01E5
S11301F001960E948900898582BB88858250888700
S1090200E7CFF894FFCFE4
S9030000FC
