S011000048414C5F55534152542E7372656350
S11300000C942A000C943F000C943F000C943F0085
S11300100C943F000C943F000C943F000C943F0060
S11300200C943F000C943F000C943F000C943F0050
S11300300C943F000C943F000C943F000C943F0040
S11300400C943F000C943F000C943F000C943F0030
S11300500C943F0011241FBECFE5D8E0DEBFCDBF16
S113006010E0A0E6B0E0ECE5F2E002C005900D92ED
S1130070AA37B107D9F70E94FA000C942C010C940A
S11300800000CF92EF920F93009709F44BC03FEF1B
S1130090360F333008F048C0423008F047C02430EF
S11300A008F046C0083008F045C031E03E1508F4B9
S11300B043C0E1100CC0F894613011F4559A07C0A4
S11300C0623011F4579A03C03AB1306A3AB9FC016C
S11300D0038331E03583E4826183228340839AB1D0
S11300E0802F8470880F880F892B660F660F660F28
S11300F0682B6AB90370000F8C2D8068082BF0E11F
S11301002F9FC0011124802B440F440F440F482B10
S113011040BD8091610089B9809162008F7780BD74
S113012085E10BC086E109C086E107C086E105C010
S113013086E103C086E101C086E1E11001C0789444
S11301400F91EF90CF9008950097C1F0611571055C
S1130150B9F0FC0185818130A9F4FB0180818823F9
S113016099F090E05D9BFECF8CB99F5FFB01E90F96
S1130170F11D80818111F6CF85E1089586E108950E
S113018086E1089580E0089585E10895009761F17E
S11301906115710559F1FC018581813049F5209182
S11301A06000822F90E0FB01E80FF91F3197308146
S11301B03137A1F02F5F5F9BFECF3CB1FB01E80F0D
S11301C0F91F308320936000822F90E02F5FFB01A2
S11301D0E80FF91F31973081313769F7FB01E80FD8
S11301E0F91F108285E1089586E1089586E1089556
S11301F080E00895CF93DF93CDB7DEB729970FB68C
S1130200F894DEBF0FBECDBFCC24C394EE24E39498
S113021003E022E040E063E0CE0101960E94410049
S11302202FEF84E39CE0215080409040E1F700C030
S1130230000000E010E0B801CE0101960E94C60063
S113024065E670E0CE0101960E94A400B801CE01DB
S10F025001960E94A400E4CFF894FFCFB4
S113025C0133000000796F752067617665206D6548
S10D026C2074686973203D3E000011
S9030000FC
