S011000048414C5F55534152542E7372656350
S11300000C942A000C9447000C9447000C9447006D
S11300100C9447000C9447000C9447000C94470040
S11300200C9447000C9447000C9447000C94470030
S11300300C9447000C94DB000C9404010C944700CE
S11300400C9447000C9447000C9447000C94470010
S11300500C94470011241FBECFE5D8E0DEBFCDBF0E
S113006010E0A0E6B0E0E2EDF2E002C005900D92EF
S1130070A436B107D9F720E0A4E6B0E001C01D9290
S1130080A337B207E1F70E943F010C9467010C9477
S11300900000CF92EF920F93009709F44BC03FEF0B
S11300A0360F333008F048C0423008F047C02430DF
S11300B008F046C0083008F045C031E03E1508F4A9
S11300C043C0E1100CC0F894613011F4559A07C094
S11300D0623011F4579A03C03AB1306A3AB9FC015C
S11300E0038331E03583E4826183228340839AB1C0
S11300F0802F8470880F880F892B660F660F660F18
S1130100682B6AB90370000F8C2D8068082BF0E10E
S11301102F9FC0011124802B440F440F440F482B00
S113012040BD8091600089B9809161008F7780BD66
S113013085E10BC086E109C086E107C086E105C000
S113014086E103C086E101C086E1E11001C0789434
S11301500F91EF90CF900895009771F0611571059C
S113016069F0FC018581813059F45D9BFECFFB0170
S113017080818CB985E1089586E1089586E108952A
S113018080E00895009779F06115710571F0FC0124
S11301902581213061F471876087709367006093D3
S11301A0660085E105C086E103C086E101C080E008
S11301B09FEF9BBB08951F920F920FB60F921124CD
S11301C02F933F934F935F936F937F938F939F935B
S11301D0AF93BF93EF93FF93E0916400F0916500B8
S11301E0309709F00995FF91EF91BF91AF919F91DD
S11301F08F917F916F915F914F913F912F910F90CC
S11302000FBE0F901F9018951F920F920FB60F926A
S113021011242F933F934F935F936F937F938F9307
S11302209F93AF93BF93EF93FF93E0916600F09198
S11302306700309709F00995FF91EF91BF91AF9155
S11302409F918F917F916F915F914F913F912F91EA
S11302500F900FBE0F901F901895CF93DF931F92AE
S1130260CDB7DEB78DE48983BE016F5F7F4F88E62B
S113027090E00E94AC000F90DF91CF910895CC24C0
S1130280C394E12C03E020E040E063E088E690E0E2
S11302900E9449006DE271E088E690E00E94C2008D
S11302A09FEF85E59BBB2FEF34E34CE021503040BA
S11302B04040E1F700C000008BBB2FEF34E34CE07B
S11302C0215030404040E1F700C00000EBCFF894EB
S10502D0FFCF5A
S10702D233000000F1
S9030000FC
