S011000048414C5F55534152542E7372656350
S11300000C942A000C9447000C9447000C9447006D
S11300100C9447000C9447000C9447000C94470040
S11300200C9447000C9447000C9447000C94470030
S11300300C9447000C9441010C946A010C94470001
S11300400C9447000C9447000C9447000C94470010
S11300500C94470011241FBECFE5D8E0DEBFCDBF0E
S113006010E0A0E6B0E0E6EEF3E002C005900D92E9
S1130070A638B107D9F720E0A6E8B0E001C01D9288
S1130080A539B207E1F70E9493010C94F1010C9495
S11300900000CF92EF920F93009709F44BC03FEF0B
S11300A0360F333008F048C0423008F047C02430DF
S11300B008F046C0083008F045C031E03E1508F4A9
S11300C043C0E1100CC0F894613011F4559A07C094
S11300D0623011F4579A03C03AB1306A3AB9FC015C
S11300E0038331E03583E4826183228340839AB1C0
S11300F0802F8470880F880F892B660F660F660F18
S1130100682B6AB90370000F8C2D8068082BF0E10E
S11301102F9FC0011124802B440F440F440F482B00
S113012040BD8091600089B9809161008F7780BD66
S113013085E10BC086E109C086E107C086E105C000
S113014086E103C086E101C086E1E11001C0789434
S11301500F91EF90CF900895009779F06115710594
S113016071F0FC018581813061F45F9BFECF8CB11D
S1130170FB0180835F9A85E1089586E1089586E115
S1130180089580E00895009771F06115710569F094
S1130190FC018581813059F45D9BFECFFB01808198
S11301A08CB985E1089586E1089586E1089580E09B
S11301B008950097C1F061157105B9F0FC018581BE
S11301C08130A9F4FB018081882399F090E05D9B44
S11301D0FECF8CB99F5FFB01E90FF11D8081811176
S11301E0F6CF85E1089586E1089586E1089580E0DB
S11301F0089585E10895AF92BF92CF92DF92EF9276
S1130200FF920F931F93CF93DF931F92CDB7DEB767
S11302101982009729F16115710521F1FC012581ED
S1130220213011F5042F5B017C016B0110E00FC03C
S1130230BE016F5F7F4FC7010E94AC001F5F9981B1
S1130240F60191936F01992329F09D3019F0011360
S1130250EFCF102FF501E10FF11D108285E105C0EC
S113026086E103C086E101C080E00F90DF91CF9169
S11302701F910F91FF90EF90DF90CF90BF90AF90C0
S113028008951F920F920FB60F9211242F933F934C
S11302904F935F936F937F938F939F93AF93BF938A
S11302A0EF93FF93E0918600F0918700309709F077
S11302B00995FF91EF91BF91AF919F918F917F919C
S11302C06F915F914F913F912F910F900FBE0F90BF
S11302D01F9018951F920F920FB60F9211242F930F
S11302E03F934F935F936F937F938F939F93AF93BA
S11302F0BF93EF93FF93E0918800F09189003097CA
S113030009F00995FF91EF91BF91AF919F918F9162
S11303107F916F915F914F913F912F910F900FBEFD
S11303200F901F901895CF93DF93CDB7DEB72C971E
S11303300FB6F894DEBF0FBECDBFCC24C394EE2419
S1130340E39403E020E040E063E08AE890E00E9468
S1130350490080E28A834AE0BE016D5F7F4F8AE8EC
S113036090E00E94FB00BE016D5F7F4F8AE890E041
S11303700E94D90064E670E08AE890E00E94D90007
S1130380BE016F5F7F4F8AE890E00E94AC002FEFC0
S113039084E39CE0215080409040E1F700C00000DD
S11303A062E770E08AE890E00E94D900BE016F5FC6
S11303B07F4F8AE890E00E94C300BE016E5F7F4FCA
S11303C08AE890E00E94C30062E770E08AE890E067
S11303D00E94D90060E070E08AE890E00E94D900B1
S10903E0BACFF894FFCF30
S11303E63300000070757420796F75722076616C25
S11303F62000796F752067617665206D65207468C5
S10904066973203D3E0075
S9030000FC
