S016000048414C5F494E54455252555054532E73726563BA
S11300000C942A000C94D7000C943C000C943C00F3
S11300100C943C000C943C000C943C000C943C006C
S11300200C943C000C943C000C943C000C943C005C
S11300300C943C000C943C000C943C000C943C004C
S11300400C943C000C943C000C943C000C943C003C
S11300500C943C0011241FBECFE5D8E0DEBFCDBF19
S113006020E0A0E6B0E001C01D92A336B207E1F79C
S11300700E94B0000C941F010C9400008091600059
S1130080811106C08FB780688FBF81E080936000C4
S113009080E0089590916000913009F04EC09BEF8C
S11300A0980F933008F04BC0643008F04AC09BB7F7
S11300B021E030E0082E02C0220F331F0A94E2F739
S11300C0292B2BBF8630C1F4613029F485B78160B8
S11300D085BF80E00895623029F485B7826085BFCA
S11300E080E00895633029F485B7836085BF80E09C
S11300F00895929A80E008958730C1F4613029F41C
S113010085B7846085BF80E00895623029F485B79F
S1130110886085BF80E00895633029F485B78C60DA
S113012085BF80E00895939A80E00895623059F481
S113013084B78F7B84BF80E0089582E0089581E0D6
S1130140089581E0089583E00895809160008130EE
S113015029F48FB78F778FBF1092600080E00895E5
S11301608FEF8ABB11BA87BB84BB0E943E0063E059
S113017086E00E944A001FEFC1E6D0E01BBB83E289
S113018094EF0197F1F700C000001BBA83E294EFEB
S11301900197F1F700C00000809161009091620026
S11301A0029714F00E94A500888188BBE7CF1F92B4
S11301B00F920FB60F9211242F933F934F935F9397
S11301C06F937F938F939F93AF93BF93EF93FF931B
S11301D08FEF85BB2FE986E891E021508040904065
S11301E0E1F700C0000015BA2FE986E891E021503C
S11301F080409040E1F700C0000080916100909140
S11302006200029714F00E94A50080916100909111
S1130210620001969093620080936100FF91EF91D8
S1130220BF91AF919F918F917F916F915F914F910A
S11302303F912F910F900FBE0F901F901895F89437
S1050240FFCFEA
S9030000FC
