S019000043414E5F4255535F496E746572666163652E7372656300
S11300000C942A000C9447000C9447000C9447006D
S11300100C9447000C9447000C9447000C94470040
S11300200C9447000C9447000C9447000C94470030
S11300300C9414010C9447000C9447000C94470052
S11300400C9447000C9447000C9447000C94470010
S11300500C94470011241FBECFE5D8E0DEBFCDBF0E
S113006010E0A0E6B0E0E4E2F3E002C005900D92F7
S1130070AA36B107D9F720E0AAE6B0E001C01D9284
S1130080AC36B207E1F70E943D010C9490010C9448
S11300900000CF92EF920F93009709F44FC06D3296
S11300A009F04EC0483008F04DC0223008F04CC072
S11300B0023008F04BC033E03E1508F449C051E06B
S11300C05C1508F447C0F8943DE2FC01308331E04C
S11300D0368341832283E4820383C5828DB1EE0C8F
S11300E0EE0CE82A842F8370E82AF0E12F9FC001E8
S11300F011248E298DB93DB150E2C59EC001112451
S1130100932F9064892B90E8099FB0011124862BCA
S11301108DB98EB146954695482B4EB9213029F4B8
S1130120BC9ABF9ABD9ABE9804C0BC98BF98BD98AB
S1130130BE9A013089F4789480E00FC081E00DC04C
S113014081E00BC081E009C081E007C081E005C007
S113015081E003C081E001C080E00F91EF90CF9077
S11301600895009719F16115710511F141155105B3
S113017009F1DC0116962C912130F1F4B5E1BA9520
S1130180F1F70000DC01EC91F0E0DB012C9122831B
S1130190FC01A081B0E0FD01319680818823ECF759
S11301A012968C91DA018C9380E0089581E0089591
S11301B081E0089581E0089580E00895CF92DF9270
S11301C0EF92FF920F931F93CF93DF930097E1F089
S11301D061157105D9F041155105D1F02223D1F0F3
S11301E0D22F6A017B018C01C0E06C2F70E0A60164
S11301F0460F571F6E0D7F1DC8010E94B100CF5FCF
S1130200DC13F3CF80E007C081E005C081E003C0C8
S113021081E001C080E0DF91CF911F910F91FF90A9
S1130220EF90DF90CF9008951F920F920FB60F9228
S113023011242F933F934F935F936F937F938F93E7
S11302409F93AF93BF93EF93FF93E0916A00F09174
S11302506B00309709F00995FF91EF91BF91AF9131
S11302609F918F917F916F915F914F913F912F91CA
S11302700F900FBE0F901F901895CF93DF93CDB7BB
S1130280DEB76B970FB6F894DEBF0FBECDBF8FEF0E
S113029081BB84BB8AE0E0E6F0E0DE0118960190C1
S11302A00D928A95E1F7FE0172968AE0DF011D92B4
S11302B08A95E9F7C12CE12C00E021E041E06DE2F0
S11302C0CE0101960E9449008FE39CE90197F1F762
S11302D000C000008E01045E1F4F2AE0AE014E5E96
S11302E05F4FBE01685F7F4FCE0101960E94DE0022
S11302F0FE0172968191873019F485B38F5F85BBB7
S113030082B38F5F82BB9FEFA0E7B2E09150A04021
S1130310B040E1F700C00000E017F10759F7DDCF66
S1070320F894FFCF7B
S10D03240107040507093607090A5A
S9030000FC
