S019000043414E5F4255535F496E746572666163652E7372656300
S11300000C942A000C943C000C943C000C943C008E
S11300100C943C000C943C000C943C000C943C006C
S11300200C943C000C943C000C943C000C943C005C
S11300300C94CE000C943C000C943C000C943C00BA
S11300400C943C000C943C000C943C000C943C003C
S11300500C943C0011241FBECFE5D8E0DEBFCDBF19
S113006020E0A0E6B0E001C01D92A236B207E1F79D
S11300700E943E000C94F7000C940000CF93DF9391
S1130080CDB7DEB727970FB6F894DEBF0FBECDBF4E
S1130090C12CE12C00E021E041E06DE2CE010196AB
S11300A00E94660085E38A95F1F700008FEF8BBB11
S11300B0EFE9FFE03197F1F700C000001BBAEFE968
S11300C0FFE03197F1F700C00000F1CFCF92EF923B
S11300D00F93009709F44FC06D3209F04EC04830B9
S11300E008F04DC0223008F04CC0023008F04BC07C
S11300F033E03E1508F449C051E05C1508F447C0EC
S1130100F8943DE2FC01308331E03683418322835D
S1130110E4820383C5828DB1EE0CEE0CE82A842FB1
S11301208370E82AF0E12F9FC00111248E298DB934
S11301303DB150E2C59EC0011124932F9064892BD8
S113014090E8099FB0011124862B8DB98EB1469594
S11301504695482B4EB9213029F4BC9ABF9ABD9AD2
S1130160BE9804C0BC98BF98BD98BE9A013089F46B
S1130170789480E00FC081E00DC081E00BC081E085
S113018009C081E007C081E005C081E003C081E0CF
S113019001C080E00F91EF90CF9008951F920F92CD
S11301A00FB60F9211242F933F934F935F936F9346
S11301B07F938F939F93AF93BF93EF93FF93E091BC
S11301C06000F0916100309709F00995FF91EF917B
S11301D0BF91AF919F918F917F916F915F914F915B
S11301E03F912F910F900FBE0F901F901895F89488
S10501F0FFCF3B
S9030000FC
