S00F000048414C5F5350492E73726563F5
S11300000C942A000C943C000C943C000C943C008E
S11300100C943C000C943C000C943C000C943C006C
S11300200C943C000C943C000C943C000C943C005C
S11300300C94B1000C943C000C943C000C943C00D7
S11300400C943C000C943C000C943C000C943C003C
S11300500C943C0011241FBECFE5D8E0DEBFCDBF19
S113006020E0A0E6B0E001C01D92A236B207E1F79D
S11300700E94DA000C94FE000C940000CF92EF92E0
S11300800F930097E1F16D32E1F54830E0F522304D
S1130090E0F50230E0F533E03E15D8F1E1E0EC158F
S11300A0D0F1F8943DE2FC01308331E036834183A2
S11300B02283E4820383C5828DB1EE0CEE0CE82A20
S11300C0842F8370E82AF0E12F9FC00111248E2928
S11300D08DB92DB130E2C39EC0011124922F9064DA
S11300E0892B90E8099F90011124822B8DB94695A4
S11300F046954EB9013089F4789480E00FC081E0D0
S11301000DC081E00BC081E009C081E007C081E03F
S113011005C081E003C081E001C080E00F91EF9051
S1130120CF9008950097B9F061157105B1F0DC0125
S113013016962C911697213091F4EC91F0E0DB01A6
S11301402C912283DC01EC91F0E0329680818823AB
S1130150ECF780E0089581E0089581E0089580E05F
S113016008951F920F920FB60F9211242F933F936D
S11301704F935F936F937F938F939F93AF93BF93AB
S1130180EF93FF93E0916000F0916100309709F0E4
S11301900995FF91EF91BF91AF919F918F917F91BD
S11301A06F915F914F913F912F910F900FBE0F90E0
S11301B01F901895CF93DF93CDB7DEB728970FB66E
S11301C0F894DEBF0FBECDBF8FEF81BB8DE688876D
S11301D0C12CE12C00E021E046E06DE2CE01019665
S11301E00E943E00BE01685F7F4FCE0101960E94CF
S11301F0920095E482B3892782BBFCCFF894FFCFA9
S9030000FC
