S00F000048414C5F5350492E73726563F5
S11300000C942A000C943C000C943C000C943C008E
S11300100C943C000C943C000C943C000C943C006C
S11300200C943C000C943C000C943C000C943C005C
S11300300C94D3000C943C000C943C000C943C00B5
S11300400C943C000C943C000C943C000C943C003C
S11300500C943C0011241FBECFE5D8E0DEBFCDBF19
S113006020E0A0E6B0E001C01D92A236B207E1F79D
S11300700E94FC000C9439010C940000CF92EF9282
S11300800F93009709F44FC06D3209F04EC0483009
S113009008F04DC0223008F04CC0023008F04BC0CC
S11300A033E03E1508F449C051E05C1508F447C03C
S11300B0F8943DE2FC01308331E0368341832283AE
S11300C0E4820383C5828DB1EE0CEE0CE82A842F02
S11300D08370E82AF0E12F9FC00111248E298DB985
S11300E03DB150E2C59EC0011124932F9064892B29
S11300F090E8099FB0011124862B8DB98EB14695E5
S11301004695482B4EB9213029F4BC9ABF9ABD9A22
S1130110BE9804C0BC98BF98BD98BE9A013089F4BB
S1130120789480E00FC081E00DC081E00BC081E0D5
S113013009C081E007C081E005C081E003C081E01F
S113014001C080E00F91EF90CF900895DC01892BDE
S113015021F16115710519F116968C91169781306C
S113016001F5FA018081811105C0EC91F0E08FEF77
S1130170828303C0EC91F0E08283EC91F0E031964D
S113018090819923ECF700C000C00000EC91F0E0EE
S11301908281FB01808380E0089581E0089581E0FD
S11301A0089580E008951F920F920FB60F921124C4
S11301B02F933F934F935F936F937F938F939F936B
S11301C0AF93BF93EF93FF93E0916000F0916100D0
S11301D0309709F00995FF91EF91BF91AF919F91ED
S11301E08F917F916F915F914F913F912F910F90DC
S11301F00FBE0F901F901895CF93DF93CDB7DEB746
S113020029970FB6F894DEBF0FBECDBF8FEF81BB29
S113021084BB188685E58987C12CE12C00E020E0A9
S113022040E06DE2CE0101960E943E0083EC99E02D
S11302300197F1F700C00000AE01475F5F4FBE01B8
S1130240685F7F4FCE0101960E94A60082B38F5F44
S113025082BB9FE32DE083E0915020408040E1F792
S113026000C000008885873039F785B38F5F85BB70
S1090270E3CFF894FFCF78
S9030000FC
